:100000000C94CC000C94F4000C94F4000C94F400C8
:100010000C94F4000C94F4000C94F4000C94F40090
:100020000C94F4000C94F4000C9479060C94E606FD
:100030000C94F4000C94F4000C94F4000C94F40070
:100040000C94F4000C94F4000C94F4000C94F40060
:100050000C94F4000C94F4000C94F4000C9431060D
:100060000C94F4000C94F4000C94F4000C94F40040
:100070000C94F4000C94F4000C94F4000C94F40030
:100080000C94F4000C94F4000C94F4000C94F40020
:100090000C94F4000C94F4000C94F4000C94F40010
:1000A0000C94F4000C94F4000C94F400080B00027F
:1000B0000202010009040000010202000005240000
:1000C0001001052401010104240206052406000193
:1000D0000705810310004009040100020A00000026
:1000E00007050202400000070583024000000403E8
:1000F000090412010002EF02014041234180000186
:100100000102030141726475696E6F204C4C43001B
:1001100041726475696E6F2059756E0000000000B1
:10012000240027002A002D003000000000002500D8
:1001300028002B002E0031000404040404030405ED
:100140000202020204030202020206060606060674
:10015000040402020204040408020110408040105A
:1001600020408040800802040180402010020110DD
:100170008010204040200000000200090F00000312
:100180000401000C0000000000000000000000005E
:10019000000000000000A10C11241FBECFEFDAE028
:1001A000DEBFCDBF11E0A0E0B1E0E2EEF9E102C0B8
:1001B00005900D92A033B107D9F722E0A0E3B1E09A
:1001C00001C01D92AF3BB207E1F710E0CCECD0E0EC
:1001D00004C02197FE010E94B60CCB3CD107C9F7A1
:1001E0000E9419090C94BC0C0C940000682FE0913B
:1001F0006F02F09170020190F081E02D8FE692E0A5
:1002000009948BE891E00197F1F70895FC01809142
:100210006E02882309F13FB7F89482E08093E900E9
:100220002091F200822F90E0222311F081E090E0F3
:10023000882339F0289844E640936D024091F100FC
:100240004083222339F02091F200211103C02BE6D4
:100250002093E8003FBF08958FEF9FEF08952FB7D9
:10026000F89483E08093E9009091E800892F8072F0
:1002700095FF04C09091F20080E4891B2FBF089580
:100280008091650281110DC082E08093610284E05B
:1002900080936202109264021092630281E0809364
:1002A000650281E692E00895282F30E0F901EA58CE
:1002B000FE4F9491F901E95AFE4F8491285C3E4F1C
:1002C000F9012491222309F1992371F091509F3073
:1002D00058F4E92FF0E0E254F34F0C94B60C9091EF
:1002E00080009F7790938000E22FF0E0EE0FFF1FD9
:1002F000E65DFE4FA591B4919FB7F894EC91611122
:1003000032C080958E238C939FBF0895909180007A
:100310009F7DE8CF90918000977FE4CF94B59F7741
:1003200094BDE2CF94B59F7DFBCF909190009F77D5
:1003300090939000D9CF909190009F7DF9CF9091AC
:100340009000977FF5CF9091C0009F779093C00069
:10035000CBCF9091C0009F7DF9CF9091C200977F45
:100360009093C200C1CF8E2BCECFCF93DF9390E07E
:10037000FC01E95AFE4F2491885C9E4FFC01849158
:100380008823D1F090E0880F991FFC01E45EFE4FB6
:10039000A591B491FC01E65DFE4FC591D491611128
:1003A0000EC09FB7F8948C91E22FE0958E238C932A
:1003B0002881E223E8839FBFDF91CF9108958FB713
:1003C000F894EC91E22BEC938FBFF6CFCF93DF93B1
:1003D000EC0161E089E00E94B501209731F460E012
:1003E00089E0DF91CF910C945401CF3FD10511F4F6
:1003F00061E0F6CFEFE7F1E0E491E150EF3008F093
:100400006FC0F0E0E353F34F0C94B60C84B58068F2
:1004100084BDC7BDDF91CF91089584B5806284BD4E
:10042000C8BDF8CF80918000806880938000D09311
:100430008900C0938800EECF809180008062809315
:100440008000D0938B00C0938A00E4CF809180001D
:10045000886080938000D0938D00C0938C00DACFA9
:1004600080919000806880939000D0939900C09311
:100470009800D0CF80919000806280939000D093BC
:100480009B00C0939A00C6CF8091900088608093B3
:100490009000D0939D00C0939C00BCCF8091C00081
:1004A00080688093C0008091C0008F7B8093C000E3
:1004B000C093CF00AFCF8091C00080628093C00016
:1004C000C093D000A7CF8091C20088608093C20003
:1004D0008091C2008B7F8093C200C093D2009ACFDC
:1004E000C038D1050CF47BCF83CF789484B582607B
:1004F00084BD84B5816084BD85B5826085BD85B5C8
:10050000816085BDEEE6F0E0808181608083E1E876
:10051000F0E01082808182608083808181608083AE
:10052000E0E8F0E0808181608083E1E9F0E08081B3
:1005300082608083808181608083E0E9F0E0808157
:1005400081608083E1ECF0E0808184608083808141
:1005500082608083808181608083E3ECF0E0808131
:1005600081608083E0ECF0E0808182608083E2EC57
:10057000F0E0808181608083EAE7F0E08081846040
:10058000808380818260808380818160808380819C
:10059000806880830895CF93DF9300D000D0CDB7DB
:1005A000DEB73FB7F89480915D0290915E02A09112
:1005B0005F02B091600226B5A89B05C02F3F19F0DD
:1005C0000196A11DB11D3FBFBA2FA92F982F8827D3
:1005D000820F911DA11DB11D9C01AD0162E0220F92
:1005E000331F441F551F6A95D1F7CA01B9010F90F7
:1005F0000F900F900F90DF91CF9108958F929F925F
:10060000AF92BF92CF92DF92EF92FF92CF93DF93A0
:1006100000D000D0CDB7DEB74B015C010E94CB0209
:100620006B017C010E94CB02DC01CB018C199D097E
:10063000AE09BF09883E9340A105B10598F321E0BA
:10064000821A9108A108B10888EEC80E83E0D81E6E
:10065000E11CF11C81149104A104B10419F70F905D
:100660000F900F900F90DF91CF91FF90EF90DF9060
:10067000CF90BF90AF909F908F9008950F931F934E
:10068000CF93C82F03E010E061E08C2F0E9454014B
:100690006EE170E080E090E00E94FE0260E08C2F4E
:1006A0000E9454016EE170E080E090E00E94FE0242
:1006B0000150110949F7CF911F910F910895CF93E0
:1006C000DF9300D000D0CDB7DEB78FB7F89420917C
:1006D000590230915A0240915B0250915C02298389
:1006E0003A834B835C838FBF69817A818B819C8144
:1006F0000F900F900F900F90DF91CF910895409140
:100700003201509133012091300130913101421773
:100710005307B4F49091E8009570E1F39091E800EC
:1007200092FD19C08093F1008091320190913301C4
:1007300001968F739927892B19F48EEF8093E80027
:10074000809132019091330101969093330180930F
:10075000320181E0089580E00895EF92FF920F93B7
:100760001F93CF93DF93F82E192FE62E042F81E0ED
:10077000860F880F0E947F0383E00E947F03CF2DA6
:10078000D12FEC0EFD2EF11CCE15DF05B9F007FFC1
:1007900013C0FE0184910E947F03182F80E00E9405
:1007A0007F03812321968111EFCFDF91CF911F919C
:1007B0000F91FF90EF9008958881EDCF81E0F5CF04
:1007C000CF92DF92FF920F931F93CF93DF93F82E78
:1007D0008A01EB016B01C40ED51ECC15DD0559F065
:1007E000F7FE12C0FE0184910E947F0321968111C1
:1007F000F4CF0FEF1FEFC801DF91CF911F910F9141
:10080000FF90DF90CF9008958881EECF0F931F93D4
:10081000CF93DF930F92CDB7DEB782E0898342E4B6
:1008200050E06CEA70E080E80E94E0030E94400122
:10083000DC0112960D911C910115110589F0D8016A
:10084000ED91FC910280F381E02DBE016F5F7F4F3F
:10085000C801099597FD04C0F80100851185ECCF0A
:1008600089810F90DF91CF911F910F910895615071
:1008700030F0FC018091F1008193CF01F8CF2898EE
:1008800084E680936D0208958F929F92AF92BF92FB
:10089000CF92DF92EF92FF920F931F93CF93DF934C
:1008A0007C018B01EA0180910B01882309F465C06A
:1008B00080916E02882309F460C08091360180FF28
:1008C00005C08091E00082608093E0006E01B12C51
:1008D0008AEFA82E93E0892E2AE3922EC114D10428
:1008E00019F4BB2009F442C00E942F0181110BC0F2
:1008F000AA94AA2009F441C061E070E080E090E091
:100900000E94FE02EBCF8C151D0411F00CF08C2D13
:100910009FB7F8948092E9002091E80025FD02C07D
:100920009FBFDCCF282F30E0C21AD30A502F412FAF
:10093000815040F0E52FF42F41914093F1005E2F5C
:100940004F2FF6CF020F131FBB2021F09092E8002B
:10095000B12CE6CF8091E80085FDE2CF9092E800CF
:10096000BB24B394C114D104D9F2F2CF5D9884E6CC
:10097000809335011C161D063CF081E090E0F701E4
:1009800093838283D0E0C0E0CE01DF91CF911F91AD
:100990000F91FF90EF90DF90CF90BF90AF909F901E
:1009A0008F900895CF93DF930F92CDB7DEB7DC0120
:1009B0006983ED91FC910280F381E02D41E050E0EC
:1009C000BE016F5F7F4F09950F90DF91CF91089522
:1009D00083E08093E9008091F200882319F08AE394
:1009E0008093E80008950E942F0190E00895CF932E
:1009F000DF930F92CDB7DEB7FC018485958597FD17
:100A000008C02FEF3FEF358724870F90DF91CF91FC
:100A10000895CE0101960E940601019719F489817B
:100A200090E0F3CF8FEF9FEFF0CF0F931F93CF9313
:100A3000DF930F92CDB7DEB78C01FC0184859585DD
:100A400097FF0BC0CE0101960E940601019771F439
:100A5000898190E0F80195878487F80184859585E0
:100A60000F90DF91CF911F910F9108958FEF9FEF1E
:100A7000F1CFFC018485958597FD0BC09FB7F89455
:100A800082E08093E9008091F2009FBF90E00196A0
:100A900008959FB7F89482E08093E9008091F20076
:100AA0009FBF90E0089520914701309148018091C7
:100AB0005202909153022032310511F4807F089543
:100AC0002034310511F4807E08952038310511F469
:100AD000807C08952115314009F4807808958FE6CF
:100AE00092E00E943905892BD1F38FE692E00E94B3
:100AF000F7040895CF93C82F0E946F05803251F4F8
:100B000084E10E94F6008C2F0E94F60080E1CF91D4
:100B10000C94F600809154029091550201969093A6
:100B200055028093540285E1F2CF0E946F05803216
:100B300031F484E10E94F60080E10C94F60080918B
:100B4000540290915502019690935502809354025D
:100B500085E1F3CFEF92FF920F931F93CF93DF9333
:100B60008C018FE4E82E81E0F82ED0E0C0E0C017C1
:100B7000D1073CF40E946F05F70181937F01219614
:100B8000F6CFDF91CF911F910F91FF90EF900895D5
:100B90008EBD00000DB407FEFDCF8EB508951F93E6
:100BA000CF93DF93162FD42FC22F0E94C805812F19
:100BB0000E94C8058D2F0E94C8058C2FDF91CF9110
:100BC0001F910C94C805EF92FF920F931F93CF9340
:100BD000DF93EC018B01CB010E94AA0560E087E066
:100BE0000E9454018FE4E82E81E0F82E0C0F1D1FA7
:100BF000C017D10781F0F70121917F014C2F6D2F94
:100C000080EC0E94CF056DE270E080E090E00E94F1
:100C1000FE022196EDCF61E087E00E94540180E161
:100C2000DF91CF911F910F91FF90EF900895CF9397
:100C3000DF93D82FC92F60E087E00E94540120E0A5
:100C40004D2F6C2F8CE40E94CF056EE170E080E0A8
:100C500090E00E94FE0261E087E0DF91CF910C946A
:100C600054011F921FB61F9211242F933F938F930D
:100C70009F93AF93BF938091590290915A02A09194
:100C80005B02B0915C023091580223E0230F2D37B4
:100C900050F50196A11DB11D209358028093590271
:100CA00090935A02A0935B02B0935C0280915D0224
:100CB00090915E02A0915F02B09160020196A11D29
:100CC000B11D80935D0290935E02A0935F02B0938A
:100CD0006002BF91AF919F918F913F912F911F9093
:100CE0001FBE1F90189526E8230F0296A11DB11D67
:100CF000D3CF1F921FB61F9211248F939F93809181
:100D0000E1009091E100937F9093E10083FF0FC099
:100D10001092E90091E09093EB001092EC0092E3C6
:100D20009093ED0010926E0298E09093F00082FF95
:100D300022C093E09093E9009091F200992319F07A
:100D40009AE39093E80090913501992341F09091B6
:100D50003501915090933501911101C05D9A9091A8
:100D60006D02992341F090916D02915090936D0224
:100D7000911101C0289A84FF17C08091E2008E7EF5
:100D800081608093E2008091E1008F7E8093E1009A
:100D9000809136018E7E8061809336019F918F9184
:100DA0001F901FBE1F90189580FFF8CF8091E20022
:100DB0008E7E80618093E2008091E1008E7E809340
:100DC000E100809136018E7E8160E6CF1F920F9206
:100DD0000FB60F921124CF92DF92EF92FF920F93F2
:100DE0001F932F933F934F935F936F937F938F93B3
:100DF0009F93AF93BF93EF93FF93CF93DF93CDB7C1
:100E0000DEB76C97DEBFCDBF1092E9008091E8009D
:100E100083FF21C068E0CE0145960E94370482EF2F
:100E20008093E8008D8987FF35C09091E80090FF9E
:100E3000FCCF982F907609F035C19E89911131C071
:100E4000803861F5809137018093F1001092F100B4
:100E50008EEF8093E8006C960FB6F894DEBF0FBE5D
:100E6000CDBFDF91CF91FF91EF91BF91AF919F9156
:100E70008F917F916F915F914F913F912F911F9132
:100E80000F91FF90EF90DF90CF900F900FBE0F90DB
:100E90001F9018959EEF9093E800CBCF1092F10031
:100EA000D5CF2F89388D913059F48111D1CF213090
:100EB000310571F6809137018D7F80933701C8CF5E
:100EC000933049F48111C4CF2130310509F6809166
:100ED00037018260F2CF953049F48091E80080FFBD
:100EE000FCCF8F8980688093E300B2CF963009F001
:100EF000AAC0F88C0B8D1C8D22E01092E900109294
:100F0000330110923201F2122EC010923101109270
:100F100030010E9406041F8299E09983FA8291E0D1
:100F20009E8390EA98879AEF9987209132013091B9
:100F30003301275F3F4F3C832B838D831092E90061
:100F4000109233011092320110933101009330015D
:100F500049E050E0BE016F5F7F4F80E00E94E003F8
:100F60000E94060475CF10933101009330010E9456
:100F70004001DC0112960D911C910115110509F437
:100F800052C1D801ED91FC910480F581E02DBE01A4
:100F90006B5E7F4FC8010995009709F03FC1F801CA
:100FA00000851185EACFF3E0FF120EC08F898823F8
:100FB00009F440C0823061F440E86BE080E191E0E8
:100FC0000E94AD03811144CF81E28093EB0043CFB7
:100FD000813029F440E86BE084E091E0F1CF833088
:100FE00099F70E944001DC011296ED90FC908E0171
:100FF0000F5F1F4F6801E114F10479F0D701ED9103
:10100000FC910680F781E02DB801C7010995080F12
:10101000111DF701E084F184EECFD8011C92F60196
:1010200001900020E9F73197BF016C197D0940E07C
:10103000C601C6CF6EEE70E0FB01449150E080E83F
:101040000E94E00305CF973009F4BECF983021F419
:1010500081E08093F100FCCE993009F0F9CE8370E5
:1010600009F0B2CFE1E2F1E081E031E096E32191D5
:10107000211109C08EE78093EA001092EA008F895F
:1010800080936E02E5CE8093E9003093EB00DF01A0
:1010900011972C912093EC009093ED008F5F873097
:1010A00031F7E8CF8B8D9C8D1092E90010923301BF
:1010B000109232019093310180933001898D81111A
:1010C00092C08E899D89913A49F4813209F07CCF92
:1010D00047E050E064E071E080E0B2CF913209F087
:1010E00073CF833269F48F89988DB0E0A0E080934C
:1010F000000190930101A0930201B0930301A8CED7
:10110000803269F48091E80082FFFCCF67E084E0E0
:1011100091E00E9437048BEF8093E80099CE8232F1
:1011200009F096CE8F8980930B01EEEFFFE7859152
:1011300094918B3F9C4D51F5EEEFFAE080910401C4
:1011400090910501A0910601B0910701803B944068
:10115000A105B105F1F480910B0180FD1AC0EE3FAD
:101160008AE0F80789F587E797E791838083809184
:1011700060008093340188E19BE00FB6F894A89555
:10118000809360000FBE9093600062CEE0E0F8E0D4
:10119000D5CF808191818737974709F059CEA8959F
:1011A0008091600088618093600080913401809319
:1011B0006000EE3F2AE0F20789F08091FE0A9091EC
:1011C000FF0A9183808344CE80819181873798077D
:1011D00051F29093FF0A8093FE0AC5CF1092FF0A46
:1011E0001092FE0A35CE0E944001DC0112960D914C
:1011F0001C910115110509F4E7CED801ED91FC9180
:101200000190F081E02DBE016B5E7F4FC801099512
:1012100081111ECEF80100851185EBCF1816190635
:101220000CF416CED1CEF1E0FF12BDCE62EF70E02D
:1012300003CF0E94750210926E0210923701109235
:1012400036018091D70081608093D70080EA809337
:10125000D80089B5806189BD89B5826089BD09B42E
:1012600000FEFDCF61E070E080E090E00E94FE02B1
:101270008091D8008F7C80618093D8008091E000BD
:10128000807F8093E0008091E1008E7E8093E1007A
:101290008DE08093E200559A209A8FEF9FEF909314
:1012A0007C0280937B0261E087E00E94B50187E0C9
:1012B00090E00E943E0361E088E00E94B50188E072
:1012C00090E00E943E0361E089E00E94B50189E060
:1012D00090E00E943E0309E4202E01E0302E88E6D3
:1012E000482E81E0582E90E0692E90E0792E8824D7
:1012F0008394912C809156029091570261E0892B42
:1013000009F460E087E00E945401809154029091BA
:10131000550261E0892B09F460E088E00E945401E5
:101320000E945F03462F572FBC0180913801909196
:101330003901A0913A01B0913B018A019B01081B40
:10134000190B2A0B3B0BD901C8018897A105B105E0
:10135000E0F0409338015093390160933A01709363
:101360003B0180910D0190910C01813C20F0919501
:1013700090930C0102C08032D0F390910C01890F40
:1013800080930D0190E00E94E6018FE692E00E94BA
:101390003905892B09F48DC00E946F05E82F853629
:1013A00088F58035E8F4813409F471C008F580339C
:1013B00009F44EC0813309F452C0803209F42EC2C0
:1013C000809154029091550201969093550280931A
:1013D00054020E946F05803209F029C282E108C2DE
:1013E000E055E53168F7F0E0E452F34F0C94B60CA9
:1013F000823409F469C0853419F785E090E00E94D1
:10140000AA052AC0843709F4FCC18537C9F60E94B1
:101410006F05803209F002C284E10E94F60020E0EC
:1014200040E060E080E30E94CF050E94F60020E0EB
:1014300041E060E080E30E94CF050E94F60020E0DA
:1014400042E060E080E30E94CF050E94F6001DC0EC
:1014500010925502109254020E9495052AC00E94D3
:101460006F05803209F0DAC184E10E94F600E09154
:101470006F02F09170020280F381E02D47E050E0AE
:1014800067E271E08FE692E0099580E1B1C10E94C8
:101490006F058238B9F030F4803841F0813881F03E
:1014A00080E005C08339E1F783E501C082E00E9456
:1014B0007A056114710409F41DCF0E9400001ACF4F
:1014C00081E0F5CF82E1F3CF84E190E00E94AA05AC
:1014D00020914F0120933C018091500180933D0168
:1014E0008091510180933E018091520180933F0190
:1014F0008091530180934001809154018093410178
:10150000809155018093420180915601809343015F
:1015100080915701809344018091590190E0982F68
:10152000882730915A01830F911D90934601809333
:10153000450180915B0190E0982F882730915C01F4
:10154000830F911D909348018093470180915D0125
:1015500090E0982F882730915E01830F911D909322
:101560004A018093490180915F0190E0B0E0A0E0E2
:10157000BA2FA92F982F882730916001830F911DD2
:10158000A11DB11DDC01992788274091610150E020
:10159000542F4427052E000C660B770B840F951FE4
:1015A000A61FB71F30916201830F911DA11DB11DB0
:1015B00080934B0190934C01A0934D01B0934E0149
:1015C00081E0203E08F480E08093510245CF809175
:1015D000560290915702892B09F03ECF609151023B
:1015E0008AE00E94540161E08AE00E94B501CFB711
:1015F000F89480915002811125C0F1018491F2018B
:101600009491E82FF0E0EE0FFF1FE45EFE4FA591EE
:10161000B4918C91982321F461E081E10E945401FE
:1016200061E081E10E94B5018CB580618CBD8CB513
:1016300080648CBD61E08FE00E94B50161E080E1D3
:101640000E94B501809150028F5F80935002CFBFFE
:1016500080914F02882351F08FB7F89490914F02F8
:10166000913021F49DB39DB39DBB8FBFF3E5FCBDCD
:101670001DBC60E08FE00E94540164E170E080E0F6
:1016800090E00E94FE02C091510261E06C278AE066
:101690000E9454010E9401016C2F8AE00E945401B3
:1016A00062E370E080E090E00E94FE0220E040E013
:1016B00063E58CEA0E94CF05909257028092560211
:1016C000CBCE0E946F05C82F0E946F0590E0982F27
:1016D00088278C0F911D9093530280935202BCCEA9
:1016E0000E946F050E946F05B7CE0E946F05C82F3C
:1016F000D0E0DC2FCC270E946F05C80FD11D0E94BF
:101700006F05863409F046C0CE010E94AA050E94EA
:101710006F05803209F082C084E10E94F6000E94C9
:1017200053058C013FE4C32E31E0D32EB12CA12C04
:10173000AC16BD065CF50E9453058017910731F089
:10174000C8010E9417060E9453058C01E0905202C6
:10175000F0905302F60120814E2D6F2D80E40E94FF
:10176000CF05F2E0AF0EB11CF60121814E2D6F2D99
:1017700088E40E94CF05FFEFEF1AFF0AF0925302B0
:10178000E092520222E0C20ED11CD2CFC8010E94C8
:1017900017067BCE853409F095C080914901909160
:1017A0004A018C179D0790F000915202109153024C
:1017B000000F111FC132D105F0F060E270E0C801E6
:1017C0000E94E305005E1F4FA097F4CF8091540262
:1017D0009091550201969093550280935402C1E175
:1017E0000E946F058032D1F484E10E94F6008C2FB4
:1017F0000E94F6005ECEBE01C8010E94E305C0E172
:10180000EFCF0E946F05C82F0E946F05082F0E941E
:101810006F05D82F0E946F05803259F080915402D5
:10182000909155020196909355028093540285E160
:10183000DFCF2C2F30E0322F2227020F132F111D64
:1018400084E10E94F600D63429F5D0E0C0E0C0174C
:10185000D1070CF01ACE409152026091530220E061
:1018600080E20E94CF050E94F600409152026091F2
:10187000530220E088E20E94CF050E94F60080918A
:101880005202909153020196909353028093520218
:101890002296DDCFD534B1F4C0915202D0915302DB
:1018A000CC0FDD1F0C0F1D1FC017D10709F4EDCDA4
:1018B0002FEF4C2F6D2F80EA0E94CF050E94F6007B
:1018C0002196F2CF81E194CF84E090E00E94AA05B6
:1018D00020915201409151016091500180914F013E
:1018E0000E94CF05E4CD10925502109254029FB78A
:1018F000F8948091500281111EC08CB58F7B8CBDF5
:1019000010924F029FBF60E080E10E94B50160E04D
:101910008FE00E94B5016091510281E068278AE062
:101920000E94540160E08AE00E94B50110925702C3
:101930001092560291CD8150809350028111E2CFD6
:10194000DCCFEFE6F2E01382128288EE93E0A0E0B3
:10195000B0E084839583A683B78382E191E091838D
:1019600080838FEF9FEF958784870895EE0FFF1F89
:101970000590F491E02D0994F894FFCF8E01920127
:101980006F0186018A0174017401740195019B0144
:101990009F01A301A9017401AD0106020D0212020B
:1019A0001C02260270027002700230023A024402E7
:1019B0004E025B0270026302E70A730CE009E00961
:1019C000E009610B640CE009E009E009E009E009C5
:1019D000E009E009E009E009700B720BE009E00999
:0219E000750B85
:1019E200FFFFFFFF00E10000000000000880000090
:1019F2000000D2044404F304E8043905F704150591
:101A020000C180810000004156522049535000001D
:1070000055C000006EC000006CC000006AC00000E7
:1070100068C0000066C0000064C0000062C00000DC
:1070200060C000005EC00000FCC400005AC0000048
:1070300058C0000056C0000054C0000052C00000FC
:1070400050C000005DC000004CC000004AC00000FD
:1070500048C0000046C0000044C0000042C000001C
:1070600040C000003EC000003CC000003AC000002C
:1070700038C0000036C0000034C0000032C000003C
:1070800030C000002EC000002CC000002AC000004C
:1070900028C0000026C0000024C0000022C000005C
:1070A00020C000001EC000001CC0000011241FBE34
:1070B000CFEFDAE0DEBFCDBF11E0A0E0B1E0E6E463
:1070C000FFE702C005900D92A63AB107D9F711E08B
:1070D000A6EAB1E001C01D92AF3BB107E1F74FD383
:1070E00030C78ECFF89410926F001092810081E02B
:1070F00085BF15BE47985D9A289A0C9400000895A4
:107100001F920F920FB60F9211242F938F939F937C
:10711000EF93FF9310928500109284008091A60156
:107120009091A701009741F001979093A701809358
:10713000A601892B09F45D9A8091A8019091A9017B
:10714000009741F001979093A9018093A801892BA2
:1071500009F4289A8091AC019091AD010196909329
:10716000AD018093AC01E0E0F0E0859194918F5FF8
:107170009F4F49F08091AA019091AB0101969093A5
:10718000AB018093AA01FF91EF919F918F912F9175
:107190000F900FBE0F901F90189584E08093E90028
:1071A0000DC08091E8008B778093E80003C08EB318
:1071B000882351F08091E80082FFF9CF8091E800A8
:1071C00085FFEFCF8091F1000895982F83E08093A1
:1071D000E9008091E80085FD0DC08091E8008E7780
:1071E0008093E80003C08EB3882369F08091E800A3
:1071F00080FFF9CF9093F1005D9884E690E0909342
:10720000A7018093A60108954F925F926F927F929B
:107210008F929F92AF92BF92CF92DF92EF92FF92A6
:107220000F931F93CF93DF9384E08093E9008091C5
:10723000E80082FF57C2289884E690E09093A90165
:107240008093A801AADF182F853481F48CE49DE196
:107250009093AB018093AA0107B600FCFDCFF9998A
:10726000FECF81E180935700E89503C0843519F47F
:1072700094DF8DE00DC28C34E1F38035D1F3843797
:1072800021F484E4A2DF80E003C2813611F489E5B1
:10729000FFC18134B1F481DF182F7FDF90E0880FC8
:1072A000991FAA2797FDA095BA2F312F330F20E001
:1072B000442737FD4095542F822B932BA42BB52BBD
:1072C000B8C1803711F483E5E3C1833549F4C0E0E8
:1072D000D1E089917ADF21E0C730D207D1F7D9C157
:1072E000863521F481E371DF80E3D2C1833731F445
:1072F00087E86BDF85E969DF8EE1CAC18536B9F4BD
:10730000E0E0F0E093E085E090935700E89507B661
:1073100000FCFDCF80935700E89507B600FCFDCF39
:10732000E058FF4FA0E7E030FA0771F7A2CF8237AD
:1073300039F4E1E0F0E089E0809357008491A8C13E
:10734000863439F4E0E0F0E089E0809357008491DE
:107350009FC18E3439F4E3E0F0E089E08093570078
:10736000849196C1813539F4E2E0F0E089E08093C0
:10737000570084918DC1823631F489E526DF80E0A3
:1073800024DF80E885C1823419F0873609F0E5C032
:107390001092AB011092AA0100DF082FFEDEF82E3A
:1073A000FCDE682E8554823008F071C1902F80E099
:1073B000CF2DD0E0C82BD92B10926F00173609F0D3
:1073C0004BC081E180935700E895DD24CC24C39421
:1073D0003FC0E090AF01F090B0010091B101109179
:1073E000B201B6E46B16D9F4ED2DF0E0EE29FF29D9
:1073F000E4918E2FEADEDD2081F082E090E0A0E0D3
:10740000B0E0E80EF91E0A1F1B1FE092AF01F092D8
:10741000B0010093B1011093B201DC2418C0D8016F
:10742000C701B695A7959795879575D5CEDE82E06D
:1074300090E0A0E0B0E0E80EF91E0A1F1B1FE092EA
:10744000AF01F092B0010093B1011093B201219706
:10745000209709F0BECF7DC08090AF019090B00121
:10746000A090B101B090B20196E4691609F05DC038
:1074700083E0F40180935700E89507B600FCFDCF48
:1074800054C0F6E46F1661F5772031F1E090AF015A
:10749000F090B0010091B1011091B2017EDED82EC2
:1074A000CC24852D90E08C299D29F7010C01409278
:1074B0005700E895112482E090E0A0E0B0E0E80EEB
:1074C000F91E0A1F1B1FE092AF01F092B00100935A
:1074D000B1011093B20102C060DE582E742423C0A3
:1074E000E090AF01F090B0010091B1011091B201B4
:1074F00016950795F794E79450DE682FC70113D5CA
:107500008091AF019091B001A091B101B091B20111
:107510000296A11DB11D8093AF019093B001A0937D
:10752000B101B093B201219704C0552477244424BB
:107530004394209709F0A5CF96E4691641F485E0BD
:10754000F40180935700E89507B600FCFDCF8DE06D
:107550003CDE82E080936F009CC0833471F4009124
:10756000AF011091B00119DE90E021E0F8010C01AB
:1075700020935700E89511247CCE833619F5E090CE
:10758000AF01F090B0010091B1011091B20105DEA0
:10759000F701E16090E021E00C0120935700E895AD
:1075A000112482E090E0A0E0B0E0E80EF91E0A1F8E
:1075B0001B1FE092AF01F092B0010093B101109354
:1075C000B20157CE8D3661F4E091AF01F091B00178
:1075D00085E080935700E89507B600FCFDCF49CEC3
:1075E000823551F4E091AF01F091B0010591149111
:1075F000812FEBDD802F4CC0843421F5E090AF016A
:10760000F090B0010091B1011091B201169507956B
:10761000F794E794C2DD682FC70185D48091AF014C
:107620009091B001A091B101B091B2010296A11D5B
:10763000B11D8093AF019093B001A093B101B093BD
:10764000B20117CE843609F5E090AF01F090B00199
:107650000091B1011091B201D801C701B695A7956B
:107660009795879558D4B1DD82E090E0A0E0B0E036
:10767000E80EF91E0A1F1B1FE092AF01F092B00145
:107680000093B1011093B20104C08B3111F08FE36C
:107690009CDD83E08093E9009091E8008091E80010
:1076A0008E778093E80095FF04C010C08EB38823C6
:1076B000C9F08091E80080FFF9CF8091E8008E77D3
:1076C0008093E80003C08EB3882361F08091E800C6
:1076D00080FFF9CF84E08093E9008091E8008B7708
:1076E0008093E800DF91CF911F910F91FF90EF9071
:1076F000DF90CF90BF90AF909F908F907F906F90D2
:107700005F904F9008959091B701892F8F778132C4
:1077100049F58091B8018032A1F0813219F5913A92
:1077200009F58091E800877F8093E8008CE091E084
:1077300067E070E027D28091E8008B778093E800C3
:107740000895913279F48091E800877F8093E80072
:107750008CE091E067E070E079D28091E8008E776C
:107760008093E800089582E061EC42E0D1D083E0AC
:1077700061E842E1CDD084E060E842E1C9C01F93F6
:10778000209100081092000844B714BE88E10FB69B
:10779000F89480936000109260000FBE80E8E0E0F3
:1077A000F0E00FB6F89480936100E09361000FBEA3
:1077B00031E035BF92E095BF3F9A209A559A809369
:1077C00061001092610047985D9A289A1092890092
:1077D0008AEF8093880090936F0083E0809381000C
:1077E000859194918F5F9F4F11F03093AE01942F4C
:1077F00041FF19C0809109012817A9F08093000862
:10780000789480911301882339F08091AC01909194
:10781000AD018F5E9240C8F310920008F89481E0A9
:10782000809313010CC090FF04C08091AE018823A7
:1078300051F493FF09C080910901281729F0809124
:10784000AE01882309F04EDCD4D078941092AB01BD
:107850001092AA011EEF20C0D7DC4BD38091AA0161
:107860009091AB0181549F4110F0109213018091CF
:10787000B3019091B40101969093B4018093B30148
:10788000292F97FF03C0512F591B252F220F28178F
:1078900010F4479801C0479A809113018823E1F6BC
:1078A0008091E00081608093E0001CDC80E090E04B
:1078B0001F910895FA01923049F0933061F09130B0
:1078C000F9F484E191E022E130E01EC086E291E02B
:1078D0002EE330E019C0882329F484E691E024E007
:1078E00030E012C0813029F488E691E022E230E0F5
:1078F0000BC0823029F48CE891E028E130E004C02C
:1079000080E090E020E030E091838083C901089519
:107910008093E9008091EB0081608093EB001092EE
:10792000ED006093EC004093ED008091EE00881F25
:107930008827881F08958091B70188238CF403C09D
:107940008EB38823B1F08091E80082FFF9CF809157
:10795000E8008B778093E80008958EB3882349F080
:107960008091E80080FFF9CF8091E8008E778093C6
:10797000E8000895EF92FF920F931F9345D04CD0EB
:1079800008ED10E0F80180818F7780838081806826
:10799000808380818F7D808319BC1EBA1092B501CF
:1079A00080EEE82EF12CF70180818B7F8083F80137
:1079B00080818160808380E060E042E0A9DFE1EEC9
:1079C000F0E080818E7F8083E2EEF0E08081816054
:1079D0008083808188608083F70180818E7F8083AF
:1079E000F8018081806180831F910F91FF90EF905B
:1079F0000895E7EDF0E08081816080838AE482BFB2
:107A000081E08093B601B6CFE8EDF0E080818E7F13
:107A100080831092E20008951092DA001092E10043
:107A200008951F920F920FB60F9211242F933F9338
:107A30004F935F936F937F938F939F93AF93BF9376
:107A4000EF93FF938091DA0080FF1BC08091D800F4
:107A500080FF17C08091DA008E7F8093DA008091DA
:107A6000D90080FF0BC080E189BD82E189BD09B4E6
:107A700000FEFDCF81E08EBB3BD203C019BC1EBA15
:107A800037D28091E10080FF17C08091E20080FF33
:107A900013C08091E2008E7F8093E2008091E2002B
:107AA00080618093E2008091D80080628093D8004A
:107AB00019BC85E08EBB1CD28091E10084FF2CC0F4
:107AC0008091E20084FF28C080E189BD82E189BD08
:107AD00009B400FEFDCF8091D8008F7D8093D8003F
:107AE0008091E1008F7E8093E1008091E2008F7EA3
:107AF0008093E2008091E20081608093E2008091B7
:107B0000B501882331F48091E30087FD02C081E054
:107B100001C084E08EBBECD18091E10083FF21C0E5
:107B20008091E20083FF1DC08091E100877F8093F8
:107B3000E10082E08EBB1092B5018091E1008E7F62
:107B40008093E1008091E2008E7F8093E20080913B
:107B5000E20080618093E20080E060E042E0D8DEF5
:107B6000C7D1FF91EF91BF91AF919F918F917F917D
:107B70006F915F914F913F912F910F900FBE0F909A
:107B80001F9018959C014091BD015091BE01461770
:107B9000570718F4F90190E044C06115710511F020
:107BA000AB01F8CF8091E8008E778093E80040E049
:107BB00050E0F0CF8EB3882309F444C0853009F437
:107BC00043C08091E80083FF02C081E00895809166
:107BD000E80082FD31C08091E80080FF22C08091E2
:107BE000F3009091F200782F60E0292F30E0262BEF
:107BF000372B07C081918093F100415050402F5F97
:107C00003F4F4115510519F02830310598F390E0A8
:107C10002830310509F491E08091E8008E77809357
:107C2000E8004115510531F6992321F605C08EB3C0
:107C3000882341F0853041F08091E80082FFF7CF42
:107C400080E0089582E0089583E008959C01611525
:107C5000710529F48091E8008B778093E800F901A1
:107C600026C08EB3882391F1853091F18091E80090
:107C700083FF02C081E008958091E80082FFF1CF88
:107C800006C08091F10081936150704059F02091BD
:107C9000F3008091F200322F20E090E0822B932BB2
:107CA000892B79F78091E8008B778093E800611544
:107CB0007105B9F605C08EB3882341F0853041F0D7
:107CC0008091E80080FFF7CF80E0089582E008957A
:107CD00083E008950F931F93DF93CF9300D0CDB728
:107CE000DEB7E7EBF1E08091F100819381E0EF3BBB
:107CF000F807C9F708DD8091E80083FFE4C08091B0
:107D0000B7019091B801953009F46DC0963040F4F8
:107D1000913081F1913070F0933009F0D4C02AC0D5
:107D2000983009F4A3C0993009F4B2C0963009F034
:107D3000CAC07CC0803809F4C6C0823809F0C3C00C
:107D40008091BB0187708093E9008091EB001092D5
:107D5000E9002091E800277F2093E80090E025E0EB
:107D6000969587952A95E1F781708093F10010929E
:107D7000F10087C0882319F0823009F0A4C08F7108
:107D8000823009F0A0C08091B901882331F520919B
:107D9000BB01277009F497C02093E9008091EB00A4
:107DA00080FF1BC0933021F48091EB00806213C0F0
:107DB0008091EB0080618093EB0081E090E002C055
:107DC000880F991F2A95E2F78093EA001092EA0043
:107DD0008091EB0088608093EB001092E900809125
:107DE000E800877F51C0882309F06DC01091B90168
:107DF0001F770FB7F8948091E800877F8093E800A1
:107E00009ADD8091E80080FFFCCF8091E3008078CC
:107E1000812B8093E30080688093E300112311F4A9
:107E200082E001C083E08EBB0FBF4DC0805882301E
:107E300008F049C08091B9019091BA016091BB01ED
:107E4000AE014F5F5F4F36DDBC01009709F43BC0C8
:107E50008091E800877F8093E80089819A8192DE93
:107E60008091E8008B778093E8002DC0803859F529
:107E70008091E800877F8093E8008091B50180932E
:107E8000F1008091E8008E778093E80054DD1BC0FC
:107E90008823C9F49091B9019230A8F48091E80048
:107EA000877F8093E8009093B50145DD8091B5010F
:107EB000882331F48091E30087FD02C081E001C096
:107EC00084E08EBB50DC8091E80083FF0AC0809183
:107ED000EB0080628093EB008091E800877F8093C5
:107EE000E8000F900F90CF91DF911F910F910895AF
:107EF00008951F938EB3882361F01091E9001092CA
:107F0000E9008091E80083FF01C0E4DE1770109360
:107F1000E9001F910895F999FECF92BD81BDF89AAD
:107F2000992780B50895262FF999FECF1FBA92BDE3
:107F300081BD20BD0FB6F894FA9AF99A0FBE01964A
:067F40000895F894FFCF44
:107F46004341544552494E41007700080000000065
:107F5600000008011201100102000008412341003F
:107F660001000201000109023E00020100803209FF
:107F7600040000010202010005240010010424028D
:107F8600040524060001070582030800FF09040111
:107F960000020A000000070504021000010705831D
:107FA6000210000104030904220341007200640068
:107FB600750069006E006F002000590075006E00A4
:107FC60020002000200020002000000018034100AF
:107FD60072006400750069006E006F0020004C009E
:067FE6004C004300000006
:040000030000700089
:00000001FF
